:020000040800F2
:100000000000022019300008810900088309000857
:100010008509000887090008890900080000000018
:10002000000000000000000000000000B1290008EE
:100030008B09000800000000512A00088D09000803
:10004000693000086930000869300008693000082C
:10005000693000086930000869300008693000081C
:10006000693000086930000869300008693000080C
:10007000A5090008693000086930000869300008E7
:1000800069300008693000086930000869300008EC
:1000900069300008693000086930000869300008DC
:1000A00069300008693000086930000869300008CC
:1000B00069300008693000086930000869300008BC
:1000C00069300008693000086930000869300008AC
:1000D00069300008B509000869300008292E0008B9
:1000E000693000086930000869300008693000088C
:1000F000693000086930000869300008693000087C
:10010000693000086930000869300008693000086B
:10011000693000086930000869300008693000085B
:10012000693000086930000869300008693000084B
:10013000693000086930000869300008693000083B
:10014000693000086930000869300008693000082B
:100150006930000869300008C509000869300008E6
:10016000693000086930000869300008693000080B
:10017000693000086930000869300008000000009C
:08018000693000086930000835
:1001900010B5054C237833B9044B13B10448AFF3C1
:1001A00000800123237010BD7400002000000000B7
:1001B000AC39000808B5034B1BB103490348AFF342
:1001C000008008BD0000000078000020AC39000865
:1001D00001F0FF01102A2BDB10F0070F08D010F8F8
:1001E000013B013A8B422DD010F0070F42B3F6D1FC
:1001F000F0B441EA012141EA014122F007047FF015
:1002000000070023F0E80256083C85EA010586EA6B
:10021000010685FA47F5A3FA87F586FA47F6A5FAA7
:1002200087F68EB9EED1F0BC01F0FF0102F00702B3
:1002300032B110F8013B013A83EA010313B1F8D15E
:100240000020704701387047002D06BF354603383F
:10025000073815F0010F07D1013015F4807F02BF78
:10026000013015F4C03F0130F0BC0138704700BFC9
:1002700053B94AB9002908BF00281CBF4FF0FF310D
:100280004FF0FF3000F074B9ADF1080C6DE904CE09
:1002900000F006F8DDF804E0DDE9022304B0704761
:1002A0002DE9F047089D04468E46002B4DD18A4229
:1002B000944669D9B2FA82F252B101FA02F3C2F15C
:1002C000200120FA01F10CFA02FC41EA030E9440ED
:1002D0004FEA1C48210CBEFBF8F61FFA8CF708FB0E
:1002E00016E341EA034306FB07F199420AD91CEBE6
:1002F000030306F1FF3080F01F81994240F21C8118
:10030000023E63445B1AA4B2B3FBF8F008FB10335F
:1003100044EA034400FB07F7A7420AD91CEB040494
:1003200000F1FF3380F00A81A74240F20781644464
:10033000023840EA0640E41B00261DB1D4400023E9
:10034000C5E900433146BDE8F0878B4209D9002D4D
:1003500000F0EF800026C5E9000130463146BDE8D7
:10036000F087B3FA83F6002E4AD18B4202D3824241
:1003700000F2F980841A61EB030301209E46002DF0
:10038000E0D0C5E9004EDDE702B9FFDEB2FA82F245
:10039000002A40F09280A1EB0C014FEA1C471FFAA3
:1003A0008CFE0126200CB1FBF7F307FB131140EA8A
:1003B00001410EFB03F0884208D91CEB010103F157
:1003C000FF3802D2884200F2CB804346091AA4B219
:1003D000B1FBF7F007FB101144EA01440EFB00FEED
:1003E000A64508D91CEB040400F1FF3102D2A64552
:1003F00000F2BB800846A4EB0E0440EA03409CE7F1
:10040000C6F12007B34022FA07FC4CEA030C20FA9D
:1004100007F401FA06F31C43F9404FEA1C4900FABD
:1004200006F3B1FBF9F8200C1FFA8CFE09FB18113A
:1004300040EA014108FB0EF0884202FA06F20BD9AD
:100440001CEB010108F1FF3A80F08880884240F2FD
:100450008580A8F102086144091AA4B2B1FBF9F041
:1004600009FB101144EA014100FB0EFE8E4508D93C
:100470001CEB010100F1FF346CD28E456AD90238C1
:10048000614440EA0840A0FB0294A1EB0E01A142A6
:10049000C846A64656D353D05DB1B3EB080261EB14
:1004A0000E0101FA07F722FA06F3F1401F43C5E9EE
:1004B000007100263146BDE8F087C2F12003D84024
:1004C0000CFA02FC21FA03F3914001434FEA1C4766
:1004D0001FFA8CFEB3FBF7F007FB10360B0C43EA58
:1004E000064300FB0EF69E4204FA02F408D91CEB08
:1004F000030300F1FF382FD29E422DD90238634406
:100500009B1B89B2B3FBF7F607FB163341EA0341A5
:1005100006FB0EF38B4208D91CEB010106F1FF38F4
:1005200016D28B4214D9023E6144C91A46EA0046EB
:1005300038E72E46284605E70646E3E61846F8E67D
:100540004B45A9D2B9EB020864EB0C0E0138A3E7C6
:100550004646EAE7204694E74046D1E7D0467BE7A7
:10056000023B614432E7304609E76444023842E71F
:10057000704700BF72B6FEE700B595B0302200218B
:1005800008A802F0ABFD00230393049305930693A0
:1005900007930193204A116C41F080511164126C51
:1005A00002F080520192019A02931C4B1A6842F4A5
:1005B00080421A601B6803F480430293029B01236C
:1005C00008934FF48033099302230E934FF4800273
:1005D0000F9206221092A8221192129304231393D1
:1005E00008A800F019FA98B90F2303930223049383
:1005F000002305934FF4A05306934FF480530793C1
:10060000052103A800F056FC20B915B05DF804FBE5
:10061000FFF7B0FFFFF7AEFF003802400070004068
:1006200008B501F0C3F8FFF7A7FF00F00BF800F0E2
:1006300093F800F0BDF800F0D5F800F05FF801F095
:10064000FFFFFEE710B58AB00022059206920792DE
:100650000892099201921E4B196B41F00101196336
:10066000196B01F00101019101990292196B41F09E
:1006700002011963196B01F00201029102990392C0
:10068000196B41F004011963196B01F00401039126
:1006900003990492196B41F0800119631B6B03F0FD
:1006A00080030493049B0B4C4FF48051204600F0D0
:1006B000C9FD4FF48053059301230693079302234A
:1006C000089305A9204600F0CBFC0AB010BD00BF7E
:1006D00000380240001C024008B5012001F0EAFF8A
:1006E000FBE70000034B0360034B0B6080231360A8
:1006F000704700BF980200209800002010B58EB00F
:10070000124C0DF11C0CA646BEE80F00ACE80F0021
:100710009EE807008CE80700002107A801F095FF7C
:100720000B4B1860EE4604F11C0CBCE80F00AEE861
:100730000F009CE807008EE807000021684601F0E2
:1007400084FF044B18600EB010BD00BFC439000810
:10075000940000209000002010B582B00024009486
:10076000124B1A6B42F480021A631A6B02F4800275
:100770000092009A01941A6B42F400121A631B6BE8
:1007800003F400130193019B224605210C2000F085
:100790008DFF0C2000F0C2FF22460521462000F00C
:1007A00085FF462000F0BAFF02B010BD00380240BD
:1007B00008B50A480A4B03604FF4E1334360002355
:1007C0008360C36003610C2242618361C36101F0F5
:1007D00013F900B908BDFFF7CDFEFBE7AC0300201D
:1007E0000010014008B50A480A4B03600A4B4360F9
:1007F00000238360C36003610C2242618361C36193
:1008000001F0FAF800B908BDFFF7B4FEFBE700BF3E
:10081000F403002000480040A086010030B58BB0F2
:1008200004460023059306930793089309930368EE
:100830004A4A934204D04A4A934248D00BB030BD52
:1008400000250195474B5A6C42F010025A645A6CCD
:1008500002F010020192019A02951A6B42F0020214
:100860001A631B6B03F002030293029BC0230593E0
:1008700002230693032308930723099305A93A4803
:1008800000F0EEFB39483A4B03604FF000634360E1
:1008900040238360C5604FF48063036145618561D7
:1008A000C5614FF440330362456200F03BFD58B927
:1008B0002E4BA3639C6300220521252000F0F6FE49
:1008C000252000F02BFFB9E7FFF754FEF0E70025E5
:1008D0000395244B1A6C42F480221A641A6C02F4B9
:1008E00080220392039A04951A6B42F004021A6361
:1008F0001B6B03F004030493049B4FF440630593C4
:1009000002230693032308930723099305A9194893
:1009100000F0A6FB1848194B03604FF000634360DA
:100920008560C5604FF48063036145618561C56181
:100930004FF440330362456200F0F4FC58B90E4BAB
:10094000E3639C6300220521272000F0AFFE2720EF
:1009500000F0E4FE72E7FFF70DFEF0E70010014043
:10096000004800400038024000040240EC02002031
:10097000B8640240000802404C0300202860024096
:10098000FEE7FEE7FEE7FEE7FEE7704708B500F08A
:1009900027FF01F03FFE012800D108BD02F08AF8D0
:1009A000FBE7000008B5024800F080FD08BD00BF6D
:1009B0004C03002008B5024801F0DAF808BD00BF7A
:1009C000AC03002008B5024800F070FD08BD00BF70
:1009D000EC02002000B583B0002200920D4B596C50
:1009E00041F480415964596C01F4804100910099AF
:1009F0000192196C41F0805119641B6C03F0805313
:100A00000193019B0F216FF0010000F04FFE03B036
:100A10005DF804FB00380240002800F0E08170B56A
:100A200082B00446036813F0010F3BD09F4B9B68D4
:100A300003F00C03042B2CD09C4B9B6803F00C039D
:100A4000082B21D06368B3F5803F4FD0B3F5A02FBA
:100A500052D0964B1A6822F480321A601A6822F437
:100A600080221A606368002B50D000F0C5FE054656
:100A70008E4B1B6813F4003F14D100F0BDFE401BE9
:100A80006428F5D90320B1E1884B5B6813F4800F2B
:100A9000D8D0864B1B6813F4003F03D06368002B4B
:100AA00000F09F81236813F0020F54D07F4B9B68A6
:100AB00013F00C0F3ED07D4B9B6803F00C03082B0A
:100AC00033D0E368002B68D0794B01221A6000F024
:100AD00093FE0546754B1B6813F0020F54D100F0CE
:100AE0008BFE401B0228F5D903207FE16F4A136873
:100AF00043F480331360B5E76C4B1A6842F48022EC
:100B00001A601A6842F480321A60ABE700F074FE93
:100B10000546664B1B6813F4003FC3D000F06CFE23
:100B2000401B6428F5D9032060E1604B5B6813F437
:100B3000800FC6D15D4B1B6813F0020F03D0E36832
:100B4000012B40F05081594A136823F0F8032169C2
:100B500043EAC1031360236813F0080F42D06369AE
:100B60006BB3534B0122C3F8802E00F045FE0546BF
:100B70004E4B5B6F13F0020F34D100F03DFE401B73
:100B80000228F5D9032031E1484A136823F0F8031D
:100B9000216943EAC1031360DDE7454B00221A6077
:100BA00000F02AFE0546414B1B6813F0020FD2D01D
:100BB00000F022FE401B0228F5D9032016E13C4B31
:100BC0000022C3F8802E00F017FE0546374B5B6FFE
:100BD00013F0020F06D000F00FFE401B0228F5D9DB
:100BE000032003E1236813F0040F77D02F4B1B6C15
:100BF00013F0805F33D1002301932C4B1A6C42F029
:100C000080521A641B6C03F080530193019B0125F1
:100C1000284B1B6813F4807F23D0A368012B34D0AA
:100C2000052B38D0214B1A6F22F001021A671A6F78
:100C300022F004021A67A368002B3DD000F0DCFD0F
:100C400006461A4B1B6F13F0020F46D100F0D4FD7D
:100C5000801B41F288339842F3D90320C6E0002577
:100C6000D6E7144A136843F48073136000F0C4FDA0
:100C70000646104B1B6813F4807FCED100F0BCFDFC
:100C8000801B0228F5D90320B0E0084A136F43F017
:100C900001031367CFE7054B1A6F42F004021A678E
:100CA0001A6F42F001021A67C5E700BF0038024020
:100CB000000047420070004000F09EFD0646524B87
:100CC0001B6F13F0020F08D000F096FD801B41F25D
:100CD00088339842F3D9032088E0EDB9A369002B4B
:100CE00000F08380484A926802F00C02082A51D032
:100CF000022B17D0454B00221A6600F07DFD0446FA
:100D0000414B1B6813F0007F42D000F075FD001BC3
:100D10000228F5D9032069E03B4A136C23F0805385
:100D20001364DBE7394B00221A6600F065FD0546C7
:100D3000354B1B6813F0007F06D000F05DFD401BB3
:100D40000228F5D9032051E0E369226A1343626A5D
:100D500043EA8213A26A5208013A43EA0243E26A72
:100D600043EA0263284A5360284B01221A6600F0C6
:100D700043FD0446244B1B6813F0007F06D100F0AE
:100D80003BFD001B0228F5D903202FE000202DE0B9
:100D900000202BE0012B2BD01B4B5B6803F4800160
:100DA000E269914226D103F03F02216A8A4223D1AF
:100DB000616A47F6C0721A40B2EB811F1ED103F47C
:100DC0004031A26A5208013AB1EB024F18D103F048
:100DD0007063E26AB3EB026F14D1002006E00120D9
:100DE0007047012002E0012000E0002002B070BD49
:100DF0000120FBE70120F9E70120F7E70120F5E7F3
:100E00000120F3E70120F1E70038024000004742EB
:100E100008B5254B9B6803F00C03042B3FD0082B2F
:100E20003FD1214B5A6802F03F025B6813F4800FF8
:100E300012D01D4B5968C1F388111C480023A1FB37
:100E40000001FFF715FA184B5B68C3F30143013348
:100E50005B00B0FBF3F025E0134B5968C1F3881C2D
:100E60004FEA4C11B1EB0C006EEB0E0E4FEA8E13F5
:100E700043EA90638101091A63EB0E03DB0043EA46
:100E80005173C90011EB0C0C43F1000399020023CC
:100E90004FEA8C2041EA9C51FFF7EAF9D3E7034877
:100EA00000E0034808BD00BF00380240001BB70047
:100EB0000024F400002800F09B8070B50D46044625
:100EC0004F4B1B6803F007038B4208D2CBB24C4A4E
:100ED0001370136803F007038B4240F08B80236884
:100EE00013F0020F17D013F0040F04D0454A936893
:100EF00043F4E0539360236813F0080F04D0414A91
:100F0000936843F4604393603E4A936823F0F00390
:100F1000A1680B439360236813F0010F32D063681C
:100F2000012B21D09A1E012A25D9364A126812F0C7
:100F3000020F61D033498A6822F0030213438B60A9
:100F400000F05AFC06462F4B9B6803F00C036268C6
:100F5000B3EB820F16D000F04FFC801B41F28833B8
:100F60009842F0D9032042E0264A126812F4003F6A
:100F7000E0D101203BE0234A126812F0007FD9D172
:100F8000012034E01E4B1B6803F00703AB4207D976
:100F9000EAB21B4B1A701B6803F00703AB422DD15A
:100FA000236813F0040F06D0164A936823F4E05325
:100FB000E1680B439360236813F0080F07D0114AD0
:100FC000936823F46043216943EAC1039360FFF708
:100FD0001FFF0C4B9B68C3F303130B4AD35CD84031
:100FE0000A4B18600A4B186800F0BAFB002070BD6D
:100FF000012070470120FAE70120F8E70120F6E719
:10100000003C0240003802401C3A00080800002062
:1010100004000020014B1868704700BF0800002042
:1010200008B5FFF7F7FF044B9B68C3F38223034A1D
:10103000D35CD84008BD00BF003802402C3A0008FD
:1010400008B5FFF7E7FF044B9B68C3F34233034A3D
:10105000D35CD84008BD00BF003802402C3A0008DD
:1010600000230F2B00F2E48070B582B060E0856849
:101070005E000324B44025EA0405CC68B4402C4348
:101080008460456825EA02054C68C4F300129A4062
:101090002A4342605AE0DC08083450F8246003F028
:1010A000070295000F22AA4026EA020E0A69AA400A
:1010B00042EA0E0240F824205CE0072200E0002211
:1010C00002FA0EF22A4302345A4D45F824205A4AB5
:1010D00094686FEA0C0224EA0C054E6816F4801F2F
:1010E00001D04CEA0405544CA560E46802EA04050A
:1010F0004E6816F4001F01D04CEA04054E4CE56022
:10110000646802EA04054E6816F4003F01D04CEA18
:101110000405494C6560246822404D6815F4803F01
:1011200001D04CEA0402444C226001330F2B7DD8DD
:1011300001229A400C6804EA020C32EA0404F4D159
:101140004C6804F00304013C012C90D94A6802F079
:101150000302032A09D0C4685D000322AA4024EADE
:1011600002048A68AA402243C2604A6802F003026D
:10117000022A90D004684FEA430E032202FA0EF2CC
:1011800024EA02044A6802F0030202FA0EF2224341
:1011900002604A6812F4403FC7D000220192274AF9
:1011A000546C44F480445464526C02F480420192C2
:1011B000019A9C08A51C1F4A52F8255003F003020F
:1011C0004FEA820E0F2202FA0EF225EA02051C4AAD
:1011D00090423FF474AF02F5806290421AD002F55B
:1011E0008062904218D002F58062904216D002F5DB
:1011F0008062904214D002F58062904212D002F5D3
:101200008062904210D002F5806290423FF455AF68
:10121000082255E7012253E7022251E703224FE754
:1012200004224DE705224BE7062249E702B070BDD4
:10123000704700BF00380140003C014000380240C8
:10124000000002400AB18161704709048161704762
:1012500010B40368D9B210390C4AA2FB014212093A
:101260000B4CA25CC2655F2909D923F47F7323F07C
:10127000030304338365806D5DF8044B704723F4EA
:101280007F7323F003038365F5E700BFABAAAAAA27
:10129000143A0008836A826992B9012B0AD0022BA2
:1012A00002D00BB100207047C36A13F0807F28D1B1
:1012B00000207047C36AB3F1C07F24D0002070477C
:1012C000B2F5005F09D0022B25D9032B25D1C36AC3
:1012D00013F0807F23D100207047032B03D8DFE871
:1012E00003F01404140A00207047C36A13F0807FCF
:1012F0000DD100207047C36AB3F1C07F09D0002030
:10130000704701207047012070470120704701207D
:10131000704701207047012070470020704701206E
:101320007047000070B5044600F066FA002C5BD0F0
:101330000546022384F83530002384F834302268CF
:10134000136823F00103136023681A6812F0010F79
:101350000AD000F051FA431B052BF5D92023636511
:10136000032084F8350070BD1A6820481040616879
:10137000A2680A43E1680A4321690A4361690A4392
:10138000A1690A43E1690A43216A0A430243616A87
:1013900004291ED01A602668756925F00705636A5E
:1013A0001D43042B07D1A36A1D43E36A1BB12046EA
:1013B000FFF770FF90B975612046FFF749FFE26DB6
:1013C0003F239340836000206065012384F835301B
:1013D000C9E7E16A206B01430A43DBE74023636509
:1013E000012084F83500BEE70120BCE73F8010F003
:1013F00070B50446866D00F0FFF994F83530DBB225
:10140000022B06D080236365002384F8343001204A
:1014100070BD05462268136823F016031360226826
:10142000536923F080035361236CE3B1226813688E
:1014300023F0080313602268136823F0010313608C
:1014400023681B6813F0010F11D000F0D5F9431B7E
:10145000052BF5D920236365032084F8350000238C
:1014600084F83430D4E7A36C002BDFD1E3E7E26DDE
:101470003F239340B360012384F83530002084F883
:101480003400C5E790F83530DBB2022B03D080235F
:10149000436501207047052380F8353002681368E2
:1014A00023F001031360002070470000F0B583B003
:1014B000044600230193724B1D68724BA3FB053554
:1014C000AD0A876D3E68C26D08239340334210D049
:1014D00003681A6812F0040F0BD01A6822F0040295
:1014E0001A60C26D08239340BB60436D43F0010353
:1014F0004365E26D01239340334209D0226852696B
:1015000012F0800F04D0BB60636D43F0020363658B
:10151000E26D04239340334209D02268126812F02E
:10152000020F04D0BB60636D43F004036365E26D9A
:1015300010239340334224D02268126812F0080F1F
:101540001FD0BB6023681A6812F4802F0DD01B686F
:1015500013F4002F04D1236C9BB12046984710E070
:10156000A36C73B1204698470BE01A6812F4807F91
:1015700003D11A6822F008021A60236C0BB12046CE
:101580009847E26D20239340334255D02268126879
:1015900012F0100F50D0BB6094F83530DBB2052B41
:1015A0000ED023681A6812F4802F33D01B6813F40E
:1015B000002F2AD1636C002B3ED0204698473BE099
:1015C0002268136823F0160313602268536923F01E
:1015D00080035361236CA3B12268136823F00803CE
:1015E0001360E26D3F239340BB60012384F83530E4
:1015F000002384F83430236D002B3FD020469847D9
:101600003CE0A36C002BE7D1EBE7E36BA3B12046F2
:10161000984711E01A6812F4807F09D11A6822F005
:1016200010021A60012384F83530002384F8343026
:10163000E36B0BB120469847636DFBB1636D13F00C
:10164000010F17D0052384F835302268136823F082
:1016500001031360019B01330193AB4204D823685B
:101660001B6813F0010FF5D1012384F835300023F6
:1016700084F83430E36C0BB12046984703B0F0BDDA
:1016800008000020B5814E1B074AD36823F4E063AD
:101690001B041B0C000200F4E060034343F0BF6333
:1016A00043F40033D360704700ED00E000B5194B00
:1016B000DB68C3F30223C3F1070CBCF1040F28BF9E
:1016C0004FF0040C03F1040EBEF1060F18D9033BD2
:1016D0004FF0FF3E0EFA0CFC21EA0C0199400EFA85
:1016E00003F322EA0303194300280BDB0901C9B203
:1016F00000F1604000F5614080F800135DF804FBE4
:101700000023E5E700F00F000901C9B2024B1954AC
:10171000F4E700BF00ED00E014ED00E0002807DB77
:1017200000F01F02400901239340024A42F8203092
:10173000704700BF00E100E00138B0F1807F0BD2BC
:101740004FF0E0235861054AF02182F82310002071
:10175000986107221A6170470120704700ED00E090
:1017600010B504460E4B18784FF47A73B3FBF0F3C0
:101770000C4A1068B0FBF3F0FFF7DEFF68B90F2CDE
:1017800001D901200AE0002221464FF0FF30FFF787
:101790008DFF054B1C60002000E0012010BD00BF44
:1017A00000000020080000200400002008B50B4BBA
:1017B0001A6842F400721A601A6842F480621A6071
:1017C0001A6842F480721A600320FFF75DFF0F2051
:1017D000FFF7C6FFFFF7FEF8002008BD003C0240FF
:1017E000034A1168034B1B780B441360704700BF1A
:1017F0003C04002000000020014B1868704700BF27
:101800003C04002038B50446FFF7F6FF0546B4F166
:10181000FF3F02D0044B1B781C44FFF7EDFF401B39
:10182000A042FAD338BD00BF00000020026802F1D8
:101830000C0353E8003F23F490730C3242E800316C
:101840000029F3D1026802F1140353E8003F23F0AA
:101850000103143242E800310029F3D1036B012B5C
:1018600005D0202380F842300023036370470268CC
:1018700002F10C0353E8003F23F010030C3242E85E
:1018800000310029F3D1ECE790F84130DBB2212B95
:1018900001D0022070478368B3F5805F17D0036AD8
:1018A0005A1C02621A7803685A60C38C9BB2013BCF
:1018B0009BB2C3844BB90268D36823F08003D36022
:1018C0000268D36843F04003D36000207047036987
:1018D000002BE4D1036A1B880268C3F3080353603A
:1018E000036A02330362E0E738B50446026813690D
:1018F00023F44053C1680B431361836802691343A7
:1019000042691343C2691A430168CB6823F4164342
:1019100023F00C031343CB600268536923F4407334
:1019200081690B4353610368314A934206D002F543
:101930008062934202D0FFF773FB01E0FFF780FB68
:10194000E369B3F5004F29D00021031849411B1862
:1019500041F10001C90041EA5371DB0018186368C6
:101960004FEA83024FEA937341F10001FEF780FCD6
:10197000204DA5FB00325109642303FB11031B0119
:101980003233A5FB03235B0903F0F00202EB0112E3
:1019900003F00F03216813448B6038BD0023021845
:1019A00043EB0301121841F10001C90041EA5271F1
:1019B000D200101841F10001626892185B41FEF7F5
:1019C00057FC0C4DA5FB00325109642303FB1103A6
:1019D000DB003233A5FB03235B095A0002F4F872E3
:1019E00002EB011203F00703216813448B60D4E774
:1019F000001001401F85EB5160B310B5044690F80C
:101A0000413013B3242384F841302268D36823F48F
:101A10000053D3602046FFF767FF2268136923F461
:101A2000904313612268536923F02A0353612268AB
:101A3000D36843F40053D36000206064202384F80B
:101A4000413084F84230606310BD80F84030FEF7CA
:101A5000E5FED7E701207047704708B50168CA68FE
:101A600022F04002CA60202280F84120FFF7F4FFF4
:101A7000002008BD7047704708B5806B0023C38500
:101A8000C384FFF7F8FF08BD704790F84230DBB21F
:101A9000222B69D18368B3F5805F4FD0826AB3F59A
:101AA000805F04D0002B56D10369002B53D103680B
:101AB0005B681370836A01338362C38D9BB2013B01
:101AC0009BB2C385002B51D100B583B00268D368A7
:101AD00023F02003D3600268D36823F48073D360BB
:101AE0000268536923F001035361202380F84230D8
:101AF00000234363036B012B33D10023036302688C
:101B000002F10C0353E8003F23F010030C3242E8CB
:101B100000310029F3D103681A6812F0100F06D0C3
:101B2000002201921A6801925B680193019B818DEA
:101B3000FFF7AAFF002003B05DF804FB0269002A4A
:101B4000ACD1826A03685B68C3F308031380836ABD
:101B500002338362B1E703685B6803F07F031370AD
:101B6000A8E7FFF787FFE5E70220704700207047EE
:101B700030B583B0044602681368D068516913F029
:101B80000F0505D113F0200F02D010F0200F19D14E
:101B90002DB111F0010119D110F4907F16D1216BF4
:101BA00001297DD013F0800F03D010F0800F40F09A
:101BB000198113F0400F03D010F0400F40F0168150
:101BC00003B030BD2046FFF760FFF9E713F0010FC7
:101BD00006D010F4807F03D0626C42F00102626490
:101BE00013F0040F04D019B1626C42F00202626477
:101BF00013F0020F04D019B1626C42F00402626467
:101C000013F0080F07D010F0200F00D119B1626C4B
:101C100042F008026264626C002AD1D013F0200FF7
:101C200002D010F0200F29D123685B6903F0400334
:101C3000626C12F0080F00D163B32046FFF7F6FD87
:101C400023685B6913F0400F20D0226802F114036F
:101C500053E8003F23F04003143242E800310029EA
:101C6000F3D1E36B73B1634A1A65E06BFFF70AFCCB
:101C70000028A5D0E06B036D9847A1E72046FFF749
:101C800004FFD1E72046FFF7F6FE99E72046FFF76D
:101C9000F2FE95E72046FFF7EEFE002363648FE730
:101CA00013F0100F3FF47EAF10F0100F3FF47AAF37
:101CB000002301931368019353680193019B5369B7
:101CC00013F0400F52D0E26B13685B689BB2002B9D
:101CD0003FF476AFA18D99427FF672AFE385D36969
:101CE000B3F5807F37D0226802F10C0353E8003F40
:101CF00023F480730C3242E800310029F3D12268CA
:101D000002F1140353E8003F23F00103143242E8C8
:101D100000310029F3D1226802F1140353E8003F97
:101D200023F04003143242E800310029F3D120238C
:101D300084F8423000232363226802F10C0353E845
:101D4000003F23F010030C3242E800310029F3D1A8
:101D5000E06BFFF74DFB02236363A18DE38D9BB224
:101D6000C91A89B22046FFF78FFE29E7A18DE38DBE
:101D70009BB2C91A89B2E38D9BB2002B3FF420AF0E
:101D800000293FF41DAF226802F10C0353E8003F25
:101D900023F490730C3242E800300028F3D122681B
:101DA00002F1140353E8003F23F00103143242E828
:101DB00000300028F3D1202384F84230002323632D
:101DC000226802F10C0353E8003F23F010030C32A9
:101DD00042E800300028F3D1022363632046FFF776
:101DE00053FEEDE62046FFF74FFDE9E62046FFF7FC
:101DF00034FEE5E6791A0008034AD2F8883043F445
:101E00007003C2F88830704700ED00E000F108036D
:101E100043604FF0FF328260C360036100230360C0
:101E2000704700230361704743684B609A688A607B
:101E3000516099600861036801330360704730B4F2
:101E40000D68B5F1FF3F11D000F108031C465B6837
:101E50001A68AA42FAD963684B6099608C60616025
:101E6000086103680133036030BC70470469F2E71E
:101E70000369416882688A60416851605A68824299
:101E800006D0002202611A68013A1A601868704789
:101E900082685A60F5E70000084B1B681B6823B98D
:101EA000074B4FF0FF321A607047044B1B68DB682A
:101EB000DB685A68024B1A60704700BF4404002078
:101EC000180500202DE9F04707469846089DDDF8E3
:101ED00024900A9C266B02F18042013A06EB8206AE
:101EE00026F0070600293AD08E464FF0000CBCF1D0
:101EF0000F0F0BD81EF80C2004EB0C0383F83420D2
:101F00001EF80C3013B10CF1010CF0E7002384F83B
:101F10004330062D00D90625E56265644FF0000ABE
:101F2000C4F848A0201DFFF77CFF04F11800FFF75C
:101F300078FF2461C5F10705A5616462C4F84CA06F
:101F400084F850A042463946304600F019FD206022
:101F5000B9F1000F01D0C9F80040BDE8F0870023B7
:101F600084F83430D5E7000038B5002407E004EBEE
:101F7000840293000E481844FFF748FF0134062CF2
:101F8000F5D90C4D2846FFF741FF0B4C2046FFF7D3
:101F90003DFF0A48FFF73AFF0948FFF737FF0948B6
:101FA000FFF734FF084B1D60084B1C6038BD00BFB5
:101FB0004C040020EC040020000500202405002033
:101FC000500500203C050020440400204804002067
:101FD00010B5044600F0FEFC214A1368013313607B
:101FE000204B1B685BB1204B1B686BB91D4B1B68FA
:101FF000DA6AE36A9A4207D81A4B1C6004E0194B6C
:102000001C601368012B28D0184A13680133136031
:10201000E06A01238340164A11680B43136000EB0A
:102020008000211D134B03EB8000FFF7FDFE00F045
:10203000F3FC0D4B1B687BB10A4B1B68DA6AE36A41
:102040009A4209D24FF0E0234FF08052C3F8042D9A
:10205000BFF34F8FBFF36F8F10BDFFF785FFD3E73F
:10206000D80400204004002038050020E4040020AB
:10207000E80400204C04002010B5044690F85130CC
:1020800063B1012B11D0022B0ED04FF0500383F31C
:102090001188BFF36F8FBFF34F8FFEE7006B00F027
:1020A000F3FB204600F0F0FB10BD00F0EDFBFBE77A
:1020B0000F4B1B68D3B110B500F08CFC0D4BDB68E7
:1020C000DC68201DFFF7D4FE0B4A1368013B136048
:1020D000074A1368013B136000F09EFC2046FFF79F
:1020E000CBFF034B1B68002BE6D110BD704700BF30
:1020F000DC04002050050020D804002008B5FFF7BC
:10210000D7FF074B1B68012BF9D94FF0E0234FF0A5
:102110008052C3F8042DBFF34F8FBFF36F8FEEE7EC
:102120004C04002070B504460D461D4B1E681D4B27
:1021300018680430FFF79CFE50B91A4B1B68DA6A26
:10214000012303FA02F218490B6823EA02030B6029
:10215000B4F1FF3F0DD03444124B1B685C60A642C3
:1021600010D9124B18680F4B19680431FFF767FE3E
:1021700070BD002DEFD00B4B196804310C48FFF7F0
:1021800053FEF5E70B4B1868064B19680431FFF74F
:1021900056FE094B1B68A342EAD9074B1C60E7E7D0
:1021A0006405002040040020E804002048040020CA
:1021B0003C050020440400201805002030B587B0FD
:1021C0000B9C7CB10C9DB5B154250495049D542DF8
:1021D0001AD04FF0500383F31188BFF36F8FBFF312
:1021E0004F8FFEE74FF0500383F31188BFF36F8FDB
:1021F000BFF34F8FFEE74FF0500383F31188BFF317
:102200006F8FBFF34F8FFEE7049D0C9D2C6302245C
:1022100085F8514000240394029505AC01940A9C72
:102220000094FFF74FFE0C98FFF7D2FE059807B019
:1022300030BD2DE9F04385B00746884614461E465A
:10224000900000F0A3FA00B38146542000F09EFAFB
:102250000546B0B1C0F83090E5B1002385F85130A3
:10226000039302950D9B01930C9B009333462246EA
:1022700041463846FFF726FE2846FFF7A9FE012013
:1022800005E0484600F000FBE6E74FF0FF3005B000
:10229000BDE8F0834FF0FF30F9E7000010B588B0DB
:1022A00000240594069407AA06A905A8FEF71AFAC1
:1022B000059B0293069B019300942346079A0E49BF
:1022C0000E48FFF77BFF0E4B186090B14FF05003A4
:1022D00083F31188BFF36F8FBFF34F8F094B4FF01C
:1022E000FF321A60084B01221A60084B1C6000F094
:1022F0000BFC08B010BD00BF343A0008FD200008F8
:102300001405002018050020380500206405002071
:10231000024A136801331360704700BFE0040020D5
:10232000F8B53A4B1B68002B69D1394B1D68013554
:102330001D60C5B9374B1B681B6843B14FF0500394
:1023400083F31188BFF36F8FBFF34F8FFEE7314ADE
:102350001168314B186810601960304A13680133F6
:102360001360FFF799FD2E4B1B68AB423DD9002748
:102370002C4B1B68DB6A03EB83039A002A4B9B58A8
:10238000012B00D90127294B1B68002B3CD00127CA
:102390003AE001271F4B1B681B6843B31D4B1B68AA
:1023A000DB68DC6863689D4226D3261D3046FFF754
:1023B0005FFDA36A1BB104F11800FFF759FDE36A42
:1023C00001229A401A49086802430A6003EB83031A
:1023D0009A00314614481044FFF726FDE26A114B7B
:1023E0001B68DB6A9A42D4D2D4E70027D2E70C4BB1
:1023F0004FF0FF321A60BBE7094A1360B8E70D4A95
:1024000013680133136000273846F8BDE00400204C
:102410006405002044040020480400201C0500201E
:1024200018050020400400204C040020680500200E
:10243000E80400202005002038B5354B1B6843B95F
:102440004FF0500383F31188BFF36F8FBFF34F8FAB
:10245000FEE700F0BFFA2E4B1A68013A1A601B68BB
:10246000002B4FD12B4B1B680BB900244BE00024F1
:10247000294B1B681BB3284BDB68DC6804F1180090
:10248000FFF7F6FC251D2846FFF7F2FCE06A012362
:102490008340224A11680B43136000EB80002946F9
:1024A0001F4B03EB8000FFF7BFFCE26A1D4B1B686C
:1024B000DB6A9A42DCD31C4B01221A60D8E70CB1CC
:1024C000FFF7EAFC194B1C6884B9174B1C68D4B1A0
:1024D0004FF0E0234FF08052C3F8042DBFF34F8F2D
:1024E000BFF36F8F01240EE0013C07D0FFF718FF08
:1024F0000028F9D00C4B01221A60F5E70B4B0022A3
:102500001A60E2E7002400F087FA204638BD00BFD9
:10251000E0040020D804002024050020E804002066
:102520004C04002040040020680500202005002005
:1025300010B5A8B10446104B1B6843B14FF05003CF
:1025400083F31188BFF36F8FBFF34F8FFEE7FFF761
:10255000DFFE00212046FFF7E5FDFFF76DFF48B9DC
:102560004FF0E0234FF08052C3F8042DBFF34F8F9C
:10257000BFF36F8F10BD00BFE0040020204B1B682D
:102580001BB1204B01221A6070471E4B00221A60BB
:102590001D4B1B68B3FA83F3DBB2C3F11F0303EBDC
:1025A00083018A0019498A5842B94FF0500383F3D6
:1025B0001188BFF36F8FBFF34F8FFEE7134903EB13
:1025C000830082000A4450684068506003EB830C2B
:1025D0004FEA8C0208321144884209D003EB83038E
:1025E0009A000A4B13445B68DA68094B1A6070471B
:1025F000406862469100054A0A445060EEE700BF19
:10260000E004002068050020E80400204C040020BD
:1026100040040020054B1B6833B1054B1B680BB110
:1026200000207047022070470120704738050020C5
:10263000E0040020842801D0033070470020704758
:1026400008B5FFF72BFE002008BD2DE9F04387B049
:1026500004460F464569BDB18669AEB1D0F8048025
:10266000D0F80090B0F90800FFF7E4FF029601955A
:1026700000903B46226949464046FFF79FFD059082
:10268000059807B0BDE8F08365682668D4F8108027
:10269000B4F90800FFF7CEFF05AB019300903B466D
:1026A0001FFA88F231462846FFF7C3FD0128E7D01C
:1026B0000020E6E708B500B90120FFF739FF002048
:1026C00008BD0000124A12F0070F1ED0D11D21F0E4
:1026D0000701C1F5705313440A460E4802600021F9
:1026E00041601344083B23F007030B480360596023
:1026F0001960991A51601360084B1960084B1960F2
:10270000084B4FF000421A6070474FF47053E4E7F3
:1027100070050020844100206C05002078410020D5
:102720007441002070410020164B1A461B688342FA
:10273000FBD3516802EB010C844509D0416800EBE2
:10274000010C634509D00360904219D010607047B6
:102750004068014451601046F0E710B40A4C246808
:10276000A3420BD05B681944416013681B68036087
:10277000904200D010605DF8044B70470460F7E7AA
:10278000704700BF844100206C05002070B50546ED
:10279000FFF7BEFD364B1B68A3B1364B1B681D42CD
:1027A0004ED135B1083515F0070F02D025F00705D9
:1027B0000835002D46D0304B1B68AB4251D32F4A11
:1027C000146804E0FFF77EFFE7E722461C466368D3
:1027D000AB4202D22368002BF7D1254B1B68A342E2
:1027E00041D0166808362368136063685B1B102BA2
:1027F00010D9601910F0070F08D04FF0500383F381
:102800001188BFF36F8FBFF34F8FFEE743606560A2
:10281000FFF78AFF626818490B689B1A0B6018491A
:1028200009688B4201D216490B60124B1B68134397
:10283000636000232360134A13680133136002E0CE
:10284000002600E00026FFF7F7FD16F0070F0CD07A
:102850004FF0500383F31188BFF36F8FBFF34F8F97
:10286000FEE70026EFE70026EDE7304670BD00BF2B
:102870006C0500207041002074410020844100203C
:10288000784100207C410020002834D038B504462F
:10289000A0F1080550F8043C174A1268134208D109
:1028A0004FF0500383F31188BFF36F8FBFF34F8F47
:1028B000FEE750F8081C41B14FF0500383F3118834
:1028C000BFF36F8FBFF34F8FFEE723EA020340F899
:1028D000043CFFF71DFD54F8041C084A13680B4420
:1028E00013602846FFF720FF054A13680133136081
:1028F000FFF7A2FD38BD70477041002074410020F1
:102900008041002082B0002301930D4B1B68B3F17E
:10291000FF3F08D04FF0500383F31188BFF36F8F50
:10292000BFF34F8FFEE74FF0500383F31188BFF3DF
:102930006F8FBFF34F8F019B002BFCD002B070470D
:102940000C00002008480068006880F308884FF0F9
:10295000000080F3148862B661B6BFF34F8FBFF3F7
:102960006F8F00DF00BF000008ED00E0DFF80C0013
:10297000016841F4700101607047000088ED00E0DB
:102980004FF0807340F8043C21F0010140F8081C2E
:10299000054B40F80C3C40F8202C6FF0020340F847
:1029A000243C4438704700BF05290008000000009F
:1029B000074B19680868B0E8F04F80F30988BFF347
:1029C0006F8F4FF0000080F311887047AFF30080E5
:1029D000400400204FF0500383F31188BFF36F8F42
:1029E000BFF34F8F0B4A136801331360012B00D0E4
:1029F00070474FF0E023D3F8043D13F0FF0FF7D0FA
:102A00004FF0500383F31188BFF36F8FBFF34F8FE5
:102A1000FEE700BF0C000020094B1B6843B94FF0D4
:102A2000500383F31188BFF36F8FBFF34F8FFEE71F
:102A3000013B034A13600BB983F31188704700BF51
:102A40000C0000200000000000000000000000005A
:102A5000EFF30980BFF36F8F154B1A681EF0100F4C
:102A600008BF20ED108A20E9F04F10602DE9090021
:102A70004FF0500080F31188BFF34F8FBFF36F8F7B
:102A8000FFF77CFD4FF0000080F3118809BC196846
:102A90000868B0E8F04F1EF0100F08BFB0EC108AC5
:102AA00080F30988BFF36F8F704700BFAFF30080DA
:102AB0004004002008B54FF0500383F31188BFF3A2
:102AC0006F8FBFF34F8FFFF72BFC28B14FF0E02340
:102AD0004FF08052C3F8042D002383F3118808BD02
:102AE0004FF0E022002313619361054B1B680549F9
:102AF000A1FB03139B09013B53610723136170473B
:102B000008000020D34D62104FF0E023D3F8002DD1
:102B10003D4B9A421CD04FF0E023D3F8002D3B4BA5
:102B20009A421ED030B583B0394B1A78D2B2019296
:102B3000FF221A701B78DBB28DF803309DF803304A
:102B400003F05003334A1370334B07221A601BE023
:102B50004FF0500383F31188BFF36F8FBFF34F8F94
:102B6000FEE74FF0500383F31188BFF36F8FBFF37D
:102B70004F8FFEE7284A1368013B13609DF803302E
:102B80005B00DBB28DF803309DF8033013F0800F4B
:102B9000F0D1214B1B68032B08D04FF0500383F377
:102BA0001188BFF36F8FBFF34F8FFEE71B021A4AE6
:102BB000136003F4E0631360019BDBB2144A1370EB
:102BC0004FF0E024D4F8203D43F47003C4F8203DD6
:102BD000D4F8203D43F07043C4F8203DFFF780FF58
:102BE00000250E4B1D60FFF7C1FED4F8343F43F0C3
:102BF0004043C4F8343FFFF7A5FEFFF7BFFCFFF7E3
:102C000081FE284603B030BD71C20F4170C20F4132
:102C100000E400E08C410020904100200C000020E6
:102C200010B503460C4A0D490D48006840B10C48E8
:102C300000680344521A934206D8094A136010BD33
:102C40000748084C0460F2E700F010FA0C23036018
:102C50004FF0FF30F3E700BF000002200004000047
:102C6000944100201843002000285FD0034600292B
:102C70005CD030B590F800C042784CEA022CCCF31E
:102C80000A0CA1F800C042788078D20842EA4012CB
:102C9000C2F30A0EA1F802E09A78D878920942EAC3
:102CA0008002187942EA8022C2F30A028A801879E7
:102CB0005C79400840EAC410C0F30A00C8805C791F
:102CC000C4F301148C725C79A409CC729C79DD790F
:102CD00044EA05248C811C7A5D7A44EA0524CC817F
:102CE0009C7ADD7A44EA05240C821C7B8C745C7B24
:102CF000CC749C7BDD7B44EA05248C821C7C5B7C51
:102D000044EA03231CB20B81ACF5806CA1F800C02F
:102D1000AEF5806EA1F802E0A2F580628A80A0F58F
:102D20008060C880A4F580630B8130BD70470000CF
:102D300010B4164B1B685C6944F040045C61DC68AD
:102D400044F01004DC60124B1C68236823F001037C
:102D5000236003E01C6824F001041C600C4B1B681A
:102D60001C6814F0010FF5D10A4C9C60D860196101
:102D70005A601A6842F480221A60054B1A68136878
:102D800043F0010313605DF8044B7047F403002027
:102D90004C03002004480040004870479C4100203C
:102DA00080B58AB01D4824228118FFF7C1FF00F0CA
:102DB000ADF8FFF7F1FF1A4B1860194B1868B0F91E
:102DC0000010B0F90220B0F90430B0F90640B0F9B3
:102DD0000850867AC77AB0F90CC0B0F90EE0B0F9A5
:102DE000108090F8129090F813A0808A0990CDF886
:102DF00020A0CDF81C90CDF81880CDF814E0CDF8C7
:102E000010C00397029601950094064800F0E8F878
:102E10004FF47A70FEF7F6FCCFE700BFB441002014
:102E2000984100203C3A000800B583B02F4B1B6846
:102E30001A6812F0200F09D0002200921A6800923E
:102E40005B680093009B03B05DF804FB284A12689E
:102E500012F0100FF7D0002201921A6801925B68FD
:102E60000193019B234B1B681A6812F4002F1DD19C
:102E70001A6822F001021A601E4802685368C3F102
:102E800024039BB21C490B8024215160116841F43A
:102E90000021116001680A6842F001020A60122BE9
:102EA000D1D116491648FFF7DFFECCE71A6822F0A9
:102EB00001021A600F4908684368C3F124030E4AEF
:102EC0001380242343600F48836A23F40023836222
:102ED00009680B6843F001030B601388122BB2D111
:102EE00006490948FFF7C0FEADE700BFF403002024
:102EF000004800404C030020FC4100209C41002081
:102F0000B441002000600240D8410020034B1A6801
:102F1000536943F080035361704700BFAC03002046
:102F200010B42A4B1A68136823F00103136003E0FE
:102F30001A6822F001021A60244B1B681A6812F00A
:102F4000010FF5D1224A934213D9583A4FF0006449
:102F5000D4601F4A934222D9583A4FF08064D4601B
:102F6000D86059601A6842F001021A605DF8044B9B
:102F70007047184A934205D902F552724FF0006427
:102F80009460E6E7144A934204D9583A4FF000643B
:102F9000D460DEE7114A4FF000649460D9E70D4A2F
:102FA000934205D902F552724FF080649460D7E7DE
:102FB000094A934204D9583A4FF08064D460CFE76D
:102FC000064A4FF080649460CAE700BFEC0200201C
:102FD00058640240B86002405860024000600240FD
:102FE0000FB410B502AA52F8041B084B1A60084C23
:102FF000204600F091F881B2064B19802046FFF779
:103000008FFFBDE8104004B0704700BF00420020B1
:103010000842002004420020DFF834D0FEF7ECFE26
:103020000C480D490D4A002302E0D458C450043323
:10303000C4188C42F9D30A4A0A4C002301E01360F9
:103040000432A242FBD300F017F8FDF7E9FA70470B
:10305000000002200000002074000020083B00084F
:103060007400002018430020FEE70000014B1868A0
:10307000704700BF1000002070B50D4D0D4C641B53
:10308000A4100026A64209D10B4D0C4C00F08EFC7A
:10309000641BA4100026A64205D170BD55F8043B60
:1030A00098470136EEE755F8043B98470136F2E7BA
:1030B000003B0008003B0008003B0008043B000800
:1030C0000A44914200F1FF3300D1704710B511F866
:1030D000014B03F8014F9142F9D110BD0244034660
:1030E000934200D1704703F8011BF9E700B59BB08C
:1030F000009104916FF000410591029105490391FF
:10310000694600F06FF8009B00221A701BB05DF852
:1031100004FB00BF0802FFFF13460A4601460248AF
:103120000068FFF7E3BF00BF100000202DE9F04763
:103130008E689E4282460C4690461F4638D88A8941
:1031400012F4906F32D025680969A5EB0109656911
:1031500005EB450505EBD57501334B446D109D42DC
:1031600038BF1D46530531D5294600F055FB0646AC
:1031700050B90C23CAF80030A38943F04003A3815F
:103180004FF0FF30BDE8F08721694A46FFF798FF0E
:10319000A38923F4906343F08003A38126616561D2
:1031A0004E44A5EB09052660A5603E46BE4200D907
:1031B0003E4620683246414600F0A8FAA3689B1BB1
:1031C000A3602368334423600020DBE72A4600F035
:1031D00097FB06460028E1D12169504600F0B0FA7D
:1031E000C7E700002DE9F04F98468B891B069DB07C
:1031F00007460D4614460ED50B6963B9402100F011
:103200000BFB2860286120B90C233B604FF0FF3096
:10321000D1E040236B610023099320238DF82930EE
:10322000CDF80C803023DFF8A8818DF82A304FF0DC
:10323000010923469A4613F8012B0AB1252AF9D130
:10324000BAEB040B0BD05B46224629463846FFF703
:103250006DFF013000F0AA80099A5A4409929AF849
:103260000030002B00F0A28000234FF0FF32CDE9A8
:1032700005230AF1010A049307938DF853301A933A
:103280005446052214F8011B5148FCF7A1FF049A8B
:10329000D8B9D00644BF20238DF85330110744BF5E
:1032A0002B238DF853309AF800302A2B15D0079A2B
:1032B000544600204FF00A0C214611F8013B303BE8
:1032C000092B4ED9B0B1079214E0A0EB080309FA1C
:1032D00003F313430493A246D2E7039B191D1B6813
:1032E0000391002BBBBF5B4242F00202079307939E
:1032F000B8BF049223782E2B0CD163782A2B35D1BA
:10330000039B1A1D1B680392002BB8BF4FF0FF33BD
:1033100002340593DFF8C8A0217803225046FCF759
:1033200057FF40B14023A0EB0A0003FA00F0049BD2
:1033300003430134049314F8011B26488DF8281028
:103340000622FCF745FF002838D0234B1BBB039B0C
:10335000073323F0070308330393099B334409938E
:1033600067E70CFB02320C460120A5E7002301347D
:10337000059319464FF00A0C204610F8012B303AFD
:10338000092A03D9002BC5D00591C3E70CFB012105
:1033900004460123F0E703AB00932A460F4B04A930
:1033A0003846AFF30080421C0646D6D1AB895B0697
:1033B0003FF52CAF09981DB0BDE8F08F03AB00932B
:1033C0002A46064B04A9384600F07AF8EBE700BF1E
:1033D000C33A0008CD3A0008000000002D31000873
:1033E000C93A00082DE9F047164699468A680B69E4
:1033F000DDF820809342B8BF1346336091F8432034
:1034000007460C460AB1013333602368990642BF70
:10341000336802333360256815F0060506D104F1E0
:10342000190AE36832689B1AAB4226DC94F8432001
:10343000131E226818BF012392062BD404F1430205
:1034400049463846C04701301ED02368E5683268D7
:1034500003F00603042B08BFAD1AA36822690CBF52
:1034600025EAE57500259342C4BF9B1AED18002696
:103470001A34B5421AD1002008E0012352464946C9
:103480003846C047013003D14FF0FF30BDE8F08728
:103490000135C6E7E1185A1C302081F84300224468
:1034A00094F8451082F843100233C7E701232246FF
:1034B00049463846C0470130E6D00136D9E700001A
:1034C0002DE9FF470F7E0C9D782F914680460C46D4
:1034D0009A4601F1430207D8622F0AD8002F00F064
:1034E000D880582F00F0A38004F1420584F8427080
:1034F0003AE0A7F16303152BF6D801A151F823F0A8
:10350000593500086D350008E9340008E934000831
:10351000E9340008E93400086D350008E934000892
:10352000E9340008E9340008E93400087936000875
:103530009D3500085B360008E9340008E9340008CE
:103540009B360008E93400089D350008E93400087E
:10355000E9340008633600082B681A1D1B682A60CE
:1035600004F1420584F842300123A3E02068296871
:10357000060601F104030AD50E682B60002E03DA5B
:103580002D23764284F843305E480A2319E00E6802
:103590002B6010F0400F18BF36B2EFE72B682068A1
:1035A000191D2960010601D51E6802E04606FBD5FB
:1035B0001E8854486F2F0CBF08230A23002184F86B
:1035C00043106568A560002DA2BF216821F00401A9
:1035D00021600EB9002D4DD01546B6FBF3F103FB6B
:1035E0001167C75D05F8017D3746BB420E46F4D929
:1035F000082B0BD12368DE0708D52369616899423F
:10360000DEBF302305F8013C05F1FF35521B226176
:10361000CDF800A04B4603AA21464046FFF7E2FE44
:1036200001304CD14FF0FF3004B0BDE8F087354891
:1036300081F845702968236851F8046B29601D06DC
:1036400014D5DF0744BF43F0200323601EB923686D
:1036500023F0200323601023B0E7236843F0200306
:1036600023607823284884F84530E3E7590648BFAB
:10367000B6B2E6E71546BBE72B6826686169181DF8
:10368000286035061B6801D5196002E07006FBD57D
:103690001980002323611546BAE72B681A1D2A609A
:1036A0001D68626800212846FCF792FD08B1401BA6
:1036B000606063682361002384F84330A8E72369CE
:1036C0002A4649464046D0470130ABD023689B0785
:1036D00013D4E068039B9842B8BF1846A4E70123BF
:1036E000324649464046D04701309BD00135E36819
:1036F00003995B1AAB42F2DCEBE7002504F11906F3
:10370000F5E700BFD43A0008E53A0008884210B552
:1037100001EB020402D98442234607D8431EA1428A
:1037200008D011F8012B03F8012FF8E702440146F5
:103730008A4200D110BD13F8014D02F8014DF7E7A0
:1037400037B5002944D051F8043C0190002BA1F179
:103750000404B8BFE41800F013F91E4A0198136876
:1037600033B96360146003B0BDE8304000F00EB9B7
:10377000A34208D9256861198B4201BF19685B68AB
:1037800049192160EDE71A465B680BB1A342FAD9EB
:1037900011685518A5420BD1246821445418A3423E
:1037A0001160E0D11C685B68536021441160DAE766
:1037B00002D90C230360D6E7256861198B4204BF48
:1037C00019685B68636004BF491921605460CAE7E7
:1037D00003B030BD0843002070B50E4E0C46316872
:1037E000054611B900F0BCF830602146284600F0CB
:1037F000B7F8431C0AD0C41C24F00304A04207D02D
:10380000211A284600F0ACF8013001D14FF0FF3406
:10381000204670BD0C4300202DE9F041CD1C25F061
:10382000030508350C2D38BF0C25002D074601DB9C
:10383000A94205D90C233B6000263046BDE8F08143
:103840002E4E00F09DF833681C4634BB294638469E
:10385000FFF7C2FF431C04464DD134682646002EB4
:1038600040D123683146384604EB030800F078F86D
:1038700080453AD1216803356D1A25F003050835D6
:103880000C2D38BF0C2529463846FFF7A5FF01301F
:103890002BD023682B4423600EE02268521B1ED4D9
:1038A0000B2A16D96119A342256018BF59606368B5
:1038B00008BF316062514B60384604F10B0600F0DE
:1038C00065F826F00706231DF21AB6D09B1BA350FD
:1038D000B3E76268A3420CBF32605A60ECE723464C
:1038E0006468B2E734467668B9E70C233B60384633
:1038F00000F04CF8A1E72560DEE700BF0843002098
:103900002DE9F041804614460E4621B9BDE8F0414C
:103910001146FFF781BF2AB9FFF712FF2546284657
:10392000BDE8F08100F038F88442074602D8B4EBD5
:10393000500F12D821464046FFF76EFF054600287B
:10394000EDD0BC422246314628BF3A46FFF7B8FBCD
:1039500031464046FFF7F4FEE1E73546DFE7000079
:1039600038B5064D0023044608462B60FFF758F98A
:10397000431C02D12B6803B1236038BD10430020E3
:10398000014800F011B800BF14430020014800F0C6
:103990000CB800BF1443002051F8043C181F002B42
:1039A000BCBF0B58C018704770477047F8B500BFD0
:1039B000F8BC08BC9E467047F8B500BFF8BC08BC10
:0439C0009E46704768
:1039C400FC390008D90600080000000000000000CF
:1039D400800000000000000000000000083A000819
:1039E400A12D00080200000000000000800000007B
:1039F400000000000000000064656661756C74548A
:103A040061736B0052435F636F6E74726F6C00007E
:103A1400000610160006101600000000000000004A
:103A24000102030406070809000000000102030460
:103A340049444C45000000002A2A2A2A2A2A2A2A14
:103A44002A2A0D0A6368303A25640D0A6368313AFC
:103A540025640D0A6368323A25640D0A6368333AB3
:103A640025640D0A6368343A25640D0A73313A25D6
:103A7400640D0A73323A25640D0A6D6F7573655FC0
:103A8400783A25640D0A6D6F7573655F793A25641C
:103A94000D0A70726573735F6C3A25640D0A707257
:103AA4006573735F723A25640D0A6B65793A256410
:103AB4000D0A2A2A2A2A2A2A2A2A2A2A0D0A00230D
:103AC4002D302B2000686C4C006566674546470026
:103AD4003031323334353637383941424344454640
:103AE40000303132333435363738396162636465D6
:043AF4006600000068
:083AF800A8C7FF7F01000000D8
:043B0000B501000803
:043B04009101000823
:103B080001000000100000000024F400AAAAAAAADC
:103B18001400002000000000000000000000000069
:103B2800000000000000000000000000000000008D
:103B3800000000000000000000000000000000007D
:103B4800000000000000000000000000000000006D
:103B5800000000000000000000000000000000005D
:103B6800000000000000000000000000000000004D
:043B78000000000049
:0400000508003019A6
:00000001FF
